{
  "_format": "hh-sol-artifact-1",
  "contractName": "TodoList",
  "sourceName": "contracts/TodoList.sol",
  "abi": [
    {
      "inputs": [
        {
          "internalType": "uint256",
          "name": "id",
          "type": "uint256"
        }
      ],
      "name": "completeTodo",
      "outputs": [],
      "stateMutability": "nonpayable",
      "type": "function"
    },
    {
      "inputs": [
        {
          "internalType": "uint256",
          "name": "id",
          "type": "uint256"
        },
        {
          "internalType": "string",
          "name": "content",
          "type": "string"
        }
      ],
      "name": "createTodo",
      "outputs": [],
      "stateMutability": "nonpayable",
      "type": "function"
    },
    {
      "inputs": [
        {
          "internalType": "uint256",
          "name": "id",
          "type": "uint256"
        },
        {
          "internalType": "string",
          "name": "content",
          "type": "string"
        }
      ],
      "name": "editTodo",
      "outputs": [],
      "stateMutability": "nonpayable",
      "type": "function"
    },
    {
      "inputs": [
        {
          "internalType": "uint256",
          "name": "id",
          "type": "uint256"
        }
      ],
      "name": "getContent",
      "outputs": [
        {
          "internalType": "string",
          "name": "",
          "type": "string"
        }
      ],
      "stateMutability": "view",
      "type": "function"
    },
    {
      "inputs": [
        {
          "internalType": "address",
          "name": "owner",
          "type": "address"
        }
      ],
      "name": "getIds",
      "outputs": [
        {
          "internalType": "uint256[]",
          "name": "",
          "type": "uint256[]"
        }
      ],
      "stateMutability": "view",
      "type": "function"
    },
    {
      "inputs": [
        {
          "internalType": "uint256",
          "name": "id",
          "type": "uint256"
        }
      ],
      "name": "getOwner",
      "outputs": [
        {
          "internalType": "address",
          "name": "",
          "type": "address"
        }
      ],
      "stateMutability": "view",
      "type": "function"
    },
    {
      "inputs": [
        {
          "internalType": "uint256",
          "name": "id",
          "type": "uint256"
        }
      ],
      "name": "isCompleted",
      "outputs": [
        {
          "internalType": "bool",
          "name": "",
          "type": "bool"
        }
      ],
      "stateMutability": "view",
      "type": "function"
    }
  ],
  "bytecode": "0x608060405234801561001057600080fd5b50610b51806100206000396000f3fe608060405234801561001057600080fd5b506004361061007d5760003560e01c80632671b0d81161005b5780632671b0d8146100ea5780637a41984b1461011a578063901ee0b81461014a578063c41a360a146101665761007d565b806308b8cc8e146100825780630b7ad54c1461009e57806320fe2144146100ce575b600080fd5b61009c600480360381019061009791906107bd565b610196565b005b6100b860048036038101906100b39190610819565b61027f565b6040516100c591906108ce565b60405180910390f35b6100e860048036038101906100e39190610819565b610327565b005b61010460048036038101906100ff919061094e565b6103ea565b6040516101119190610a39565b60405180910390f35b610134600480360381019061012f9190610819565b610480565b6040516101419190610a76565b60405180910390f35b610164600480360381019061015f91906107bd565b6104ad565b005b610180600480360381019061017b9190610819565b61054a565b60405161018d9190610aa0565b60405180910390f35b6000803373ffffffffffffffffffffffffffffffffffffffff1673ffffffffffffffffffffffffffffffffffffffff168152602001908152602001600020829080600181540180825580915050600190039060005260206000200160009091909190915055336001600084815260200190815260200160002060000160006101000a81548173ffffffffffffffffffffffffffffffffffffffff021916908373ffffffffffffffffffffffffffffffffffffffff1602179055508060016000848152602001908152602001600020600101908051906020019061027a92919061058a565b505050565b60606001600083815260200190815260200160002060010180546102a290610aea565b80601f01602080910402602001604051908101604052809291908181526020018280546102ce90610aea565b801561031b5780601f106102f05761010080835404028352916020019161031b565b820191906000526020600020905b8154815290600101906020018083116102fe57829003601f168201915b50505050509050919050565b3373ffffffffffffffffffffffffffffffffffffffff166001600083815260200190815260200160002060000160009054906101000a900473ffffffffffffffffffffffffffffffffffffffff1673ffffffffffffffffffffffffffffffffffffffff161461039557600080fd5b6001600082815260200190815260200160002060020160009054906101000a900460ff16156001600083815260200190815260200160002060020160006101000a81548160ff02191690831515021790555050565b60606000808373ffffffffffffffffffffffffffffffffffffffff1673ffffffffffffffffffffffffffffffffffffffff16815260200190815260200160002080548060200260200160405190810160405280929190818152602001828054801561047457602002820191906000526020600020905b815481526020019060010190808311610460575b50505050509050919050565b60006001600083815260200190815260200160002060020160009054906101000a900460ff169050919050565b3373ffffffffffffffffffffffffffffffffffffffff166001600084815260200190815260200160002060000160009054906101000a900473ffffffffffffffffffffffffffffffffffffffff1673ffffffffffffffffffffffffffffffffffffffff161461051b57600080fd5b8060016000848152602001908152602001600020600101908051906020019061054592919061058a565b505050565b60006001600083815260200190815260200160002060000160009054906101000a900473ffffffffffffffffffffffffffffffffffffffff169050919050565b82805461059690610aea565b90600052602060002090601f0160209004810192826105b857600085556105ff565b82601f106105d157805160ff19168380011785556105ff565b828001600101855582156105ff579182015b828111156105fe5782518255916020019190600101906105e3565b5b50905061060c9190610610565b5090565b5b80821115610629576000816000905550600101610611565b5090565b6000604051905090565b600080fd5b600080fd5b6000819050919050565b61065481610641565b811461065f57600080fd5b50565b6000813590506106718161064b565b92915050565b600080fd5b600080fd5b6000601f19601f8301169050919050565b7f4e487b7100000000000000000000000000000000000000000000000000000000600052604160045260246000fd5b6106ca82610681565b810181811067ffffffffffffffff821117156106e9576106e8610692565b5b80604052505050565b60006106fc61062d565b905061070882826106c1565b919050565b600067ffffffffffffffff82111561072857610727610692565b5b61073182610681565b9050602081019050919050565b82818337600083830152505050565b600061076061075b8461070d565b6106f2565b90508281526020810184848401111561077c5761077b61067c565b5b61078784828561073e565b509392505050565b600082601f8301126107a4576107a3610677565b5b81356107b484826020860161074d565b91505092915050565b600080604083850312156107d4576107d3610637565b5b60006107e285828601610662565b925050602083013567ffffffffffffffff8111156108035761080261063c565b5b61080f8582860161078f565b9150509250929050565b60006020828403121561082f5761082e610637565b5b600061083d84828501610662565b91505092915050565b600081519050919050565b600082825260208201905092915050565b60005b83811015610880578082015181840152602081019050610865565b8381111561088f576000848401525b50505050565b60006108a082610846565b6108aa8185610851565b93506108ba818560208601610862565b6108c381610681565b840191505092915050565b600060208201905081810360008301526108e88184610895565b905092915050565b600073ffffffffffffffffffffffffffffffffffffffff82169050919050565b600061091b826108f0565b9050919050565b61092b81610910565b811461093657600080fd5b50565b60008135905061094881610922565b92915050565b60006020828403121561096457610963610637565b5b600061097284828501610939565b91505092915050565b600081519050919050565b600082825260208201905092915050565b6000819050602082019050919050565b6109b081610641565b82525050565b60006109c283836109a7565b60208301905092915050565b6000602082019050919050565b60006109e68261097b565b6109f08185610986565b93506109fb83610997565b8060005b83811015610a2c578151610a1388826109b6565b9750610a1e836109ce565b9250506001810190506109ff565b5085935050505092915050565b60006020820190508181036000830152610a5381846109db565b905092915050565b60008115159050919050565b610a7081610a5b565b82525050565b6000602082019050610a8b6000830184610a67565b92915050565b610a9a81610910565b82525050565b6000602082019050610ab56000830184610a91565b92915050565b7f4e487b7100000000000000000000000000000000000000000000000000000000600052602260045260246000fd5b60006002820490506001821680610b0257607f821691505b602082108103610b1557610b14610abb565b5b5091905056fea26469706673582212209e37ab8e159209852bf034ca0548e0b0bf6c211f8bbe62181b7bbb6015e6bd2664736f6c634300080d0033",
  "linkReferences": {},
  "deployedLinkReferences": {}
}