{
  "abi": [
    {
      "inputs": [
        {
          "internalType": "uint256",
          "name": "id",
          "type": "uint256"
        }
      ],
      "name": "completeTodo",
      "outputs": [],
      "stateMutability": "nonpayable",
      "type": "function"
    },
    {
      "inputs": [
        {
          "internalType": "uint256",
          "name": "id",
          "type": "uint256"
        },
        {
          "internalType": "string",
          "name": "content",
          "type": "string"
        }
      ],
      "name": "createTodo",
      "outputs": [],
      "stateMutability": "nonpayable",
      "type": "function"
    },
    {
      "inputs": [
        {
          "internalType": "uint256",
          "name": "id",
          "type": "uint256"
        },
        {
          "internalType": "string",
          "name": "content",
          "type": "string"
        }
      ],
      "name": "editTodo",
      "outputs": [],
      "stateMutability": "nonpayable",
      "type": "function"
    },
    {
      "inputs": [
        {
          "internalType": "uint256",
          "name": "id",
          "type": "uint256"
        }
      ],
      "name": "getContent",
      "outputs": [
        {
          "internalType": "string",
          "name": "",
          "type": "string"
        }
      ],
      "stateMutability": "view",
      "type": "function"
    },
    {
      "inputs": [
        {
          "internalType": "address",
          "name": "owner",
          "type": "address"
        }
      ],
      "name": "getIds",
      "outputs": [
        {
          "internalType": "uint256[]",
          "name": "",
          "type": "uint256[]"
        }
      ],
      "stateMutability": "view",
      "type": "function"
    },
    {
      "inputs": [
        {
          "internalType": "uint256",
          "name": "id",
          "type": "uint256"
        }
      ],
      "name": "getOwner",
      "outputs": [
        {
          "internalType": "address",
          "name": "",
          "type": "address"
        }
      ],
      "stateMutability": "view",
      "type": "function"
    },
    {
      "inputs": [
        {
          "internalType": "uint256",
          "name": "id",
          "type": "uint256"
        }
      ],
      "name": "isCompleted",
      "outputs": [
        {
          "internalType": "bool",
          "name": "",
          "type": "bool"
        }
      ],
      "stateMutability": "view",
      "type": "function"
    }
  ],
  "bytecode": {
    "object": "0x608060405234801561001057600080fd5b50610690806100206000396000f3fe608060405234801561001057600080fd5b506004361061007d5760003560e01c80632671b0d81161005b5780632671b0d8146100d35780637a41984b146100f3578063901ee0b814610129578063c41a360a1461013c57600080fd5b806308b8cc8e146100825780630b7ad54c1461009757806320fe2144146100c0575b600080fd5b610095610090366004610375565b61017d565b005b6100aa6100a5366004610430565b6101cb565b6040516100b79190610449565b60405180910390f35b6100956100ce366004610430565b610273565b6100e66100e136600461049e565b6102b7565b6040516100b791906104ce565b610119610101366004610430565b60009081526001602052604090206002015460ff1690565b60405190151581526020016100b7565b610095610137366004610375565b610320565b61016561014a366004610430565b6000908152600160205260409020546001600160a01b031690565b6040516001600160a01b0390911681526020016100b7565b33600081815260208181526040808320805460018181018355918552838520018790558684529182905290912080546001600160a01b0319169092178255016101c6828261059a565b505050565b60606001600083815260200190815260200160002060010180546101ee90610512565b80601f016020809104026020016040519081016040528092919081815260200182805461021a90610512565b80156102675780601f1061023c57610100808354040283529160200191610267565b820191906000526020600020905b81548152906001019060200180831161024a57829003601f168201915b50505050509050919050565b6000818152600160205260409020546001600160a01b0316331461029657600080fd5b6000908152600160208190526040909120600201805460ff19169091179055565b6001600160a01b0381166000908152602081815260409182902080548351818402810184019094528084526060939283018282801561026757602002820191906000526020600020905b8154815260200190600101908083116103015750505050509050919050565b6000828152600160205260409020546001600160a01b0316331461034357600080fd5b6000828152600160208190526040909120016101c6828261059a565b634e487b7160e01b600052604160045260246000fd5b6000806040838503121561038857600080fd5b82359150602083013567ffffffffffffffff808211156103a757600080fd5b818501915085601f8301126103bb57600080fd5b8135818111156103cd576103cd61035f565b604051601f8201601f19908116603f011681019083821181831017156103f5576103f561035f565b8160405282815288602084870101111561040e57600080fd5b8260208601602083013760006020848301015280955050505050509250929050565b60006020828403121561044257600080fd5b5035919050565b600060208083528351808285015260005b818110156104765785810183015185820160400152820161045a565b81811115610488576000604083870101525b50601f01601f1916929092016040019392505050565b6000602082840312156104b057600080fd5b81356001600160a01b03811681146104c757600080fd5b9392505050565b6020808252825182820181905260009190848201906040850190845b81811015610506578351835292840192918401916001016104ea565b50909695505050505050565b600181811c9082168061052657607f821691505b60208210810361054657634e487b7160e01b600052602260045260246000fd5b50919050565b601f8211156101c657600081815260208120601f850160051c810160208610156105735750805b601f850160051c820191505b818110156105925782815560010161057f565b505050505050565b815167ffffffffffffffff8111156105b4576105b461035f565b6105c8816105c28454610512565b8461054c565b602080601f8311600181146105fd57600084156105e55750858301515b600019600386901b1c1916600185901b178555610592565b600085815260208120601f198616915b8281101561062c5788860151825594840194600190910190840161060d565b508582101561064a5787850151600019600388901b60f8161c191681555b5050505050600190811b0190555056fea2646970667358221220d52ec877d1075fc03f4200eccb4f1ff9d4f1b67f7fed56663f38866d6ac1f20564736f6c634300080f0033",
    "linkReferences": {}
  },
  "methodIdentifiers": {
    "completeTodo(uint256)": "20fe2144",
    "createTodo(uint256,string)": "08b8cc8e",
    "editTodo(uint256,string)": "901ee0b8",
    "getContent(uint256)": "0b7ad54c",
    "getIds(address)": "2671b0d8",
    "getOwner(uint256)": "c41a360a",
    "isCompleted(uint256)": "7a41984b"
  },
  "id": 6
}